:020000040800F2
:100000000020002081190008D9050008DB05000840
:1000100000000000000000000000000000000000E0
:10002000000000000000000000000000DD050008E6
:100030000000000000000000DF050008E1050008E6
:10004000D1190008D1190008D1190008D1190008E8
:10005000D1190008D1190008D1190008D1190008D8
:1000600000000000D1190008D1190008D1190008BA
:10007000D1190008D119000800000000D1190008AA
:1000800000000000D119000800000000000000007E
:10009000D119000800000000D1190008D11900088A
:1000A000D1190008D1190008D1190008D119000888
:1000B000D1190008D119000800000000000000005C
:1000C00010B5064C2378002B07D1054B002B02D02E
:1000D000044800E000BF0123237010BD0C00002085
:1000E000000000002C1A0008044B10B5002B03D0B0
:1000F0000349044800E000BF10BDC04600000000F6
:10010000100000202C1A0008002243088B4274D3F0
:1001100003098B425FD3030A8B4244D3030B8B4208
:1001200028D3030C8B420DD3FF22090212BA030C11
:100130008B4202D31212090265D0030B8B4219D3F2
:1001400000E0090AC30B8B4201D3CB03C01A524112
:10015000830B8B4201D38B03C01A5241430B8B425A
:1001600001D34B03C01A5241030B8B4201D30B0343
:10017000C01A5241C30A8B4201D3CB02C01A52416A
:10018000830A8B4201D38B02C01A5241430A8B422D
:1001900001D34B02C01A5241030A8B4201D30B0216
:1001A000C01A5241CDD2C3098B4201D3CB01C01A30
:1001B000524183098B4201D38B01C01A524143093A
:1001C0008B4201D34B01C01A524103098B4201D328
:1001D0000B01C01A5241C3088B4201D3CB00C01A95
:1001E000524183088B4201D38B00C01A524143080D
:1001F0008B4201D34B00C01A5241411A00D2014632
:10020000524110467047FFE701B5002000F006F8A4
:1002100002BDC0460029F7D076E770477047C04658
:10022000002B11D1002A0FD1002900D1002802D0C3
:100230000021C943080007B4024802A140180290F7
:1002400003BDC046D9FFFFFF03B4684601B502985D
:1002500000F034F8019B9E4602B00CBC7047C046CB
:10026000F0B5CE46474680B5070099463B0C9C4604
:1002700013041B0C1D000E0061460004140C000C3E
:1002800045434B4360436143C0182C0C20188C46F7
:10029000834203D980235B029846C444494679438C
:1002A0007243030C63442D042D0CC918000440193B
:1002B0008918C0BCB946B046F0BDC046F0B5574637
:1002C0004E464546DE46E0B504000D00924699468E
:1002D00083B08B4230D82DD04946504600F0BAF852
:1002E00029000600200000F0B5F8331A9846203B9C
:1002F0009B4633D45A465346934042461F005346CA
:1003000093401E00AF423AD8AF4200D178E05B463E
:10031000A41BBD41002B00DA75E0002200230092EF
:10032000019301235A46934001930123424693408F
:10033000009328E08242CFD900220023009201934B
:100340000C9B002B01D01C605D600098019903B0EC
:10035000F0BCBB46B246A946A046F0BD42462023AB
:100360009B1A5246DA40414613004A468A4017001B
:1003700042461F43534693401E00AF42C4D9002259
:100380000023009201934346002BD9D0FB0772084B
:100390001A4346467B080EE0AB4201D1A2420CD87C
:1003A000A41A9D41012024196D410021013E241809
:1003B0004D41002E06D0AB42EED9013E24196D41CD
:1003C000002EF8D1009801995B4600196941002B75
:1003D00024DB2B005A464446D3402A00E2401C004E
:1003E0005B461500002B2ADB26009E4033002600CA
:1003F0004746BE403200801A9941009001919FE724
:10040000A342BCD883E74246202300219B1A002246
:10041000009101920122DA40019286E742462023B0
:100420009B1A2A0046469A402300F3404446134351
:100430002A00E2401C005B461500002BD4DA42463D
:100440002F002023260097409B1ADE403B003343B9
:10045000CDE7C04610B5002903D100F007F82030E1
:1004600002E0080000F002F810BDC0461C21012384
:100470001B04984201D3000C10391B0A984201D387
:10048000000A08391B09984201D30009043902A265
:10049000105C40187047C0460403020201010101CC
:1004A000000000000000000072B6FEE700B59BB03F
:1004B000342200210DA801F0B1FA1422002108A86D
:1004C00001F0ACFA1C22002101A801F0A7FA1A4998
:1004D0000B681A4A1A4080231B0113430B60102338
:1004E0000D930F3B139300231493A0221202159235
:1004F00016930DA800F03EF9002817D10F2308939A
:10050000002309930A930B930C93002108A800F091
:10051000B7FB00280CD1022301930023049301A808
:1005200000F0C0FC002805D11BB000BDFFF7BCFFE8
:10053000FFF7BAFFFFF7B8FF00700040FFE7FFFFCB
:1005400010B500F087F8FFF7B1FF00F01FF800F0DA
:10055000A9FEA024E4050221200000F04DFEFA20AF
:1005600000F09EF80121200000F046FE642000F01B
:1005700097F801235B420E220249034801F010F96B
:10058000E7E7C046441A00082C00002030B587B0C9
:100590001422002101A801F041FA0E4BDA6A01246D
:1005A0002243DA62DB6A23400093009BA025ED051D
:1005B00000220321280000F019FE03230193029476
:1005C00000230393049301A9280000F047FD07B01E
:1005D00030BDC04600100240FEE7FEE7704770479E
:1005E00010B500F04BF810BD054B5A6B01210A43C2
:1005F0005A63996B802252050A439A637047C0463A
:100600000010024010B504000F4B1978FA2080004A
:10061000FFF77AFD01000D4B1868FFF775FD00F03C
:1006200023FE00280DD1032C01D901200AE001305E
:1006300000222100404200F0E7FD054B1C60002035
:1006400000E0012010BDC04600000020080000208E
:100650000400002010B5084A136840210B431360C2
:100660000320FFF7CFFF041E02D00124200010BD9D
:10067000FFF7BAFFFAE7C04600200240034A1168BC
:10068000034B1B785B1813607047C046280000209E
:1006900000000020014B18687047C0462800002069
:1006A00070B50400FFF7F6FF0500631C02D0044B91
:1006B0001B78E418FFF7EEFF401BA042FAD370BD91
:1006C0000000002010B5264BDA680C231340082BDD
:1006D00042D00C2B11D0042B09D0214B5A68520B5D
:1006E00007231340013380200002984010BD1C4BAB
:1006F0001B68DB0632D51B48F8E7910C0F230B4033
:100700001949C85C920D03231A40541C144BDB6832
:10071000DB0309D5154A00230021FFF7A1FD2200C4
:100720000023FFF77DFDE1E70D4B1B68DB0609D5D4
:100730000C4A00230021FFF793FD22000023FFF75E
:100740006FFDD3E70A4A00230021FFF789FD22004D
:100750000023FFF765FDC9E70448C7E70448C5E77C
:100760000010024000093D006C1A000800127A00D7
:100770000024F400F0B583B0041E00D15DE2C14B4B
:10078000DA680C251540DE6880235B021E40036892
:10079000DB0736D5082D2CD00C2D28D0636880229D
:1007A000520293424DD0A022D202934250D0B54B78
:1007B0001A68B5490A401A601A68802149020A403D
:1007C0000192019A1A68B1490A401A606368002BC5
:1007D0004AD0FFF75FFF0700AA4B1B689B0310D4AA
:1007E000FFF758FFC01B6428F6D9032026E2002E2D
:1007F000D4D0A44B1B689B0303D56368002B00D1A6
:100800001EE223689B0765D5E368042D3CD00C2DC0
:1008100038D0002B00D1B0E09A490A680920824301
:1008200013430B60FFF736FF0600964B1B685B0710
:1008300000D599E0FFF72EFF801B0228F5D9032091
:10084000FCE1904A116880235B020B431360BDE713
:100850008C4B19688022D2020A431A6019688022E0
:1008600052020A431A60B1E7FFF714FF0700854BF5
:100870001B689B03C5D5FFF70DFFC01B6428F6D985
:100880000320DBE1002EC4D17E4A1268520702D554
:10089000002B00D1D6E17B4E72687D490A40216968
:1008A00009020A437260326809218A4313433360A4
:1008B000FFF708FFF26812090F231340754AD35C53
:1008C000D840754B1860754B1868FFF79BFE0028E1
:1008D00000D0B3E12368DB062DD5002D60D1694B34
:1008E0001B689B0503D5A369002B00D1ACE1654AC9
:1008F00053686B490B40216A0B43536053681B02DA
:100900001B0AE16909060B435360236A590B013145
:1009100080231B028B40D16809090F220A405D49E0
:100920008A5CD3405C4A13605C4B1868FFF76AFE30
:10093000002800D082E123681B077DD56369002B66
:1009400067D0504A136D01210B431365FFF7A2FED8
:1009500006004C4B1B6D9B076ED4FFF79BFE801B64
:100960000228F6D9032069E146494B68484A1340FA
:100970002269120213434B60ACE7424A136801211B
:100980008B431360FFF786FE06003E4B1B685B0738
:10099000A0D5FFF77FFE801B0228F6D903204DE18A
:1009A000A369002B22D0374A116880235B000B43D8
:1009B0001360FFF76FFE0600324B1B689B0506D4E1
:1009C000FFF768FE801B0228F6D9032036E12D4A86
:1009D000536833490B40216A0B43536053681B0231
:1009E0001B0AE16909060B435360A4E7254A136813
:1009F0002C490B401360FFF74DFE0600214B1B688E
:100A00009B0598D5FFF746FE801B0228F6D90320E8
:100A100014E11C4A136D01218B431365FFF73AFE65
:100A20000600184B1B6D9B0706D5FFF733FE801B96
:100A30000228F6D9032001E123685B0700D48EE089
:100A4000104B9B6BDB001BD40E4A916B80235B0524
:100A50000B4393630126144B1B68DB0528D5A36861
:100A600080225200934237D0002B4DD1054B1A6D96
:100A70000C490A401A651A6D0C490A401A6531E0A2
:100A80000026E8E700100240FFFFFEFFFFFFFBFF2C
:100A9000FFE0FFFF541A00080800002004000020B7
:100AA000FF1FFFFFFFFEFFFF00700040FFFBFFFF87
:100AB0006B4A116880235B000B431360FFF7EAFD6C
:100AC0000700674B1B68DB05C9D4FFF7E3FDC01BBC
:100AD0006428F6D90320B1E0624A116D80235B00DF
:100AE0000B431365A368002B28D0FFF7D3FD070045
:100AF0005C4B1B6D9B0530D4FFF7CCFDC01B5A4BE4
:100B00009842F5D9032099E0A022D200934209D05F
:100B1000544B1A6D55490A401A651A6D54490A40DA
:100B20001A65DFE74F4B196D013AFF3A0A431A6520
:100B3000196D802252000A431A65D3E7FFF7AAFD18
:100B40000700484B1B6D9B0507D5FFF7A3FDC01B96
:100B5000454B9842F5D9032070E0012E1AD0636A04
:100B6000002B00D172E00C2D4FD0022B18D03D4A43
:100B7000136840490B401360FFF78CFD0400394BAC
:100B80001B689B013FD5FFF785FD001B0228F6D9A6
:100B9000032053E0334A936B37490B409363DEE7FE
:100BA000304A136833490B401360FFF773FD0500AB
:100BB0002C4B1B689B0106D5FFF76CFD401B0228E0
:100BC000F6D903203AE02749CB682C4A1340A26AA1
:100BD000E06A0243206B02431343CB600A68802320
:100BE0005B0413430B60FFF755FD04001D4B1B68AE
:100BF0009B0106D4FFF74EFD001B0228F6D9032007
:100C00001CE000201AE0002018E0012B20D0154B3A
:100C1000DA6880235B021340A16A8B421AD1F02369
:100C20009B031340E16A8B4216D1C0231B041A4078
:100C3000236B9A4212D1002000E0012003B0F0BDE6
:100C40000120FBE70120F9E70120F7E70020F5E7A5
:100C50000120F3E70120F1E70120EFE70120EDE7B4
:100C6000007000400010024088130000FFFEFFFFEC
:100C7000FFFBFFFFFFFFFFFEFFFFFFEFFFFF02FF96
:100C800070B505000C00002800D1D1E06A4B1A684D
:100C9000012313408B4219D32B689B0706D5674A63
:100CA000D368F0218B43A9680B43D3602B68DB0723
:100CB0007BD56B68022B20D0032B40D0012B44D076
:100CC0005E4A126892051DD4012099E05A4A1368C1
:100CD00001218B4323431360FFF7DCFC0600564BD6
:100CE0001A6801231340A342D6D0FFF7D3FC801B20
:100CF000534A9042F3D9032082E0504A126892038B
:100D000000D497E04D49CA68032082431343CB6067
:100D1000FFF7C0FC06006B68022B1CD0032B28D009
:100D2000012B34D0454BDB680C221A423DD0FFF733
:100D3000B1FC801B424B9842F4D9032060E03F4A4B
:100D400012689201DED401205AE03C4A1268520730
:100D5000D8D4012054E0394BDA680C231340082B17
:100D600023D0FFF797FC801B354A9042F3D903202C
:100D700046E0324BDA680C2313400C2B15D0FFF7FA
:100D800089FC801B2E4B9842F3D9032038E02B4B73
:100D9000DA680C231340042B07D0FFF77BFC801B81
:100DA000274B9842F3D903202AE0234B1A680123EA
:100DB0001340A34225D82B685B0706D51F4AD3688A
:100DC00020490B40E9680B43D3602B681B0707D50C
:100DD0001A49CB681C4A13402A69D2001343CB60DE
:100DE000FFF770FC154BDA6812090F231340174AFE
:100DF000D35CD840164B1860164B1868FFF702FCFE
:100E000070BD0D4A136801218B4323431360FFF724
:100E100041FC0600084B1A6801231340A342CAD0C4
:100E2000FFF738FC801B064B9842F3D90320E7E715
:100E30000120E5E70120E3E7002002400010024026
:100E400088130000FFF8FFFFFFC7FFFF541A0008D8
:100E50000800002004000020014B18687047C046BD
:100E60000800002010B5FFF7F7FF044BDA68120AFC
:100E700007231340024AD35CD84010BD0010024043
:100E8000641A000810B5FFF7E7FF044BDA68D20ACE
:100E900007231340024AD35CD84010BD0010024023
:100EA000641A000870B5040003689B064FD5614BB7
:100EB0009B6BDB0000D57EE05E4A916B80235B0577
:100EC0000B43936301255C4B1B68DB0500D474E086
:100ED000584B1968C0239B031940626813408B422A
:100EE00006D0C0239B0211001940994200D179E03D
:100EF000504B196DC0239B0208001840194215D0B1
:100F00001A40824212D023689B060FD5494B186DB8
:100F10004A4A02401E6D8021090331431965196D4B
:100F2000474E314019651A65C30562D46368C02213
:100F300092021900114091426AD03E490B6DC022C5
:100F400092026068024013430B65012D6AD023684A
:100F5000DB0706D5374AD36C03218B43A1680B43CB
:100F6000D36423689B0706D5324AD36C0C218B438C
:100F7000E1680B43D36423685B0706D52D4AD36C25
:100F800030490B4021690B43D36423681B0706D506
:100F9000284AD36C2C490B4061690B43D364236806
:100FA0001B0645D5234AD36C28490B40A1690B4346
:100FB000D364002070BD002585E71F4A1168802397
:100FC0005B000B431360FFF765FB06001A4B1B68C1
:100FD000DB0500D57CE7FFF75DFB801B6428F5D9B6
:100FE0000320E7E7134B1B689B0300D480E7012035
:100FF000E0E7FFF74FFB06000E4B1B6D9B0595D4FA
:10100000FFF748FB801B124B9842F5D90320D1E72C
:1010100008490A680F480240C02080030340134378
:101020000B608AE70A008B6B0B490B4093638EE7DA
:101030000020BFE70010024000700040FFFFFCFFEF
:10104000FFFFF7FFFFF3FFFFFFCFFFFFFFFFF3FF00
:1010500088130000FFFFCFFFFFFFFFEFF0B5002375
:1010600057E084685F000326BE40B4432600CC6886
:10107000BC4034438460446894434A6816090122A2
:1010800032409A402243426053E0DC080834A40016
:10109000265805321A4092000F279740BE430F6929
:1010A00097403A003243225057E0052600E00026E0
:1010B000A64034003C4302329200454E9451454ACA
:1010C0001468EA432600AE434F68FF0301D52C4362
:1010D0002600404C26606468260016404F68BF0317
:1010E00001D52C4326003B4C6660A46826001640C0
:1010F0004F68FF0201D52C432600364CA660E468F9
:1011000022404E68B60201D52A002243314CE260EB
:1011100001330C682200DA4058D001229A402500A1
:1011200015401442F4D003244E683440013C012C95
:1011300097D903224C682240032A09D0C2685E0076
:101140000324B440A24314008A68B2402243C26020
:1011500003224C682240022A97D004685E000322D2
:101160001700B740BC434F683A40B2402243026088
:10117000C02292024C681442CAD0174C626B0126FE
:10118000324362639A08941CA400114EA7590326A7
:101190001E40B4000F26A640B743A026F605B04275
:1011A00085D00E4EB0420BD00D4EB0420AD00D4E3F
:1011B000B04209D00C4EB04200D176E7062677E760
:1011C000012675E7022673E7032671E7F0BDC046E6
:1011D00000000140000401400010024000040050E3
:1011E00000080050000C0050001C0050002A01D0E4
:1011F000816170478162FCE7426913000B401B0468
:10120000914319438161704770B5002811DB830851
:10121000134EC0339B009D5903242040C000FF2281
:1012200014008440A54389010A4082402A439A5110
:1012300070BD0F230340083B9B0806339B00094AFF
:10124000944663445C6803221040C000FC321500E1
:101250008540AC4389010A40824022435A60E7E757
:1012600000E100E000ED00E0013880235B049842DB
:101270000FD2094A50600948036A1B021B0AC021A9
:1012800009060B43036200239360073313600020B9
:1012900070470120FCE7C04610E000E000ED00E0F0
:1012A0007047000010B50C480C4B0360E1235B0253
:1012B000436000238360C36003610C224261836149
:1012C000C3610362436200F025FB002800D110BD1A
:1012D000FFF7EAF8FBE7C0462C000020004400407E
:1012E00010B586B004001422002101A800F096FB7E
:1012F0002268104B9A4201D006B010BD0E4B996B7C
:10130000802292020A439A63D96A01221143D96268
:10131000DB6A1A400092009B0C2301930A3B029364
:101320000133049301330593A02001A9C005FFF701
:1013300095FEE1E70044004000100240D0B50400F3
:10134000016883680269134342691343C269134306
:101350000A689648024013430B6022685368944918
:101360000B40E1680B435360A1692268914B9A429C
:1013700001D0236A194393688F4803400B4393605D
:1013800022688E4B9A4216D08D4B9A4224D0894BBC
:101390009A4232D0102387498A425CD0E069802289
:1013A0001202904200D193E0082B00D9F7E09B0095
:1013B000844AD3589F46844BD96C03230B40022B9D
:1013C00033D005D8002B32D0012B32D10333E2E7E2
:1013D000032B30D10533DEE77B4BD96C0C230B405C
:1013E000082B2AD005D8002B29D0042BD3D01023CA
:1013F000D1E70C2B25D1043BCDE7734BDB6CC0212F
:1014000009010B40802109018B421CD007D8002B19
:101410001BD08021C9008B4219D10423BBE7C02116
:1014200009018B4215D10823B5E70223B3E7012355
:10143000B1E71023AFE71023ADE70223ABE70023AA
:10144000A9E71023A7E70223A5E70023A3E71023BA
:10145000A1E710239FE7042B35D00BD8002B2CD00D
:10146000022B05D1584B1B68DB062FD4574805E0EB
:10147000012073E0082B1ED1802000026268530017
:101480009B18834200D97EE01303834200D27CE0A4
:10149000070E060250080021801979410023FEF74B
:1014A000BFFE4B4BC2184B4B9A4200D96FE02368EA
:1014B000D860002052E0012050E0FFF7D3FC002864
:1014C000DCD100204AE0FFF7FDF8F8E74248D5E715
:1014D000082B5ED89B00414AD3589F46FFF7C2FCB9
:1014E000002858D0400063685B08C0186168FEF7A8
:1014F0000BFE83B20004000C01001039384A9142FF
:101500004BD80F2293431A0040080723184010437A
:101510002368D860002021E0FFF7B4FCE0E72A4B05
:101520001B68DB0604D42948DCE7FFF7CBF8D7E7D4
:101530002948D7E7FFF796FC002832D063685B089C
:1015400018186168FEF7E0FD0004000C0200103A74
:10155000234B9A4227D82368D86000200023636673
:10156000A366D0BDFFF78EFCE6E7174B1B68DB06D2
:1015700007D41648E2E7FFF7A5F8DDE78020000270
:10158000DCE71548DAE70120E8E70120E6E701207B
:10159000E4E70120E2E70020E0E70120DEE70120A8
:1015A000DCE70020DAE70120D8E7C046F369FFEF67
:1015B000FFCFFFFF00480040FFF4FFFF003801406D
:1015C00000440040781A0008001002400024F40093
:1015D00000FDFFFFFFFC0F0000093D009C1A000802
:1015E000EFFF0000436ADB0706D5026853682C4909
:1015F0000B40816A0B435360436A9B0706D5026820
:10160000536828490B40C16A0B435360436A5B0728
:1016100006D50268536824490B40016B0B435360A5
:10162000436A1B0706D50268536820490B40416B8B
:101630000B435360436ADB0606D5026893681C4976
:101640000B40816B0B439360436A9B0606D502688F
:10165000936818490B40C16B0B439360436A5B0668
:101660000BD50268536814490B40016C0B4353605F
:1016700080235B03026C9A420AD0436A1B0606D59C
:10168000026853680D490B40816C0B4353607047EF
:10169000026853680A490B40416C0B435360ECE706
:1016A000FFFFFDFFFFFFFEFFFFFFFBFFFF7FFFFFD1
:1016B000FFEFFFFFFFDFFFFFFFFFEFFFFFFFF7FF82
:1016C000FFFF9FFFF8B5CE46474680B506000D00E8
:1016D00017009946089B98463368DC692C40641BC8
:1016E00063425C41BC4253D143460133F4D0FEF720
:1016F000D1FF4B46C01A40452CD84346002B29D079
:1017000033681A685207E7D5DA691205E4D58022F2
:1017100012011A62EFF31080012282F310883168FF
:101720000B681E4C23400B6080F31088EFF3108091
:1017300082F3108831688B6893438B6080F3108844
:101740002023B367F3677F32B35054330022F2543F
:1017500003201EE0EFF31080012282F3108831682D
:101760000B680E4C23400B6080F31088EFF3108061
:1017700082F3108831688B6893438B6080F3108804
:101780002023B367F36754330022F254032000E0B0
:101790000020C0BCB946B046F8BDC0465FFEFFFFA2
:1017A000F0B5C64600B582B004000D0090461E009C
:1017B000836F202B66D1002969D0002A69D080234D
:1017C0005B0182689A421ED07423E35C012B62D0D5
:1017D00074230122E2540C330022E2505F3BA367E2
:1017E000FEF758FF070050234246E2520233E2520E
:1017F00080235B01A2689A420CD000239846742390
:101800000022E2541DE00369002BDDD1CB07DBD5BC
:10181000012038E02369002B02D000239846EEE730
:10182000A8460025EBE743461B882268DB05DB0D55
:10183000936202239C46E0445223E25A013A92B258
:10184000E2525223E35A9BB2002B0FD000963B008A
:10185000002280212000FFF735FF00281DD1002D38
:10186000E1D02A7823689A620135E5E700963B00CB
:10187000002240212000FFF725FF00280FD1202360
:10188000A36700E0022002B080BCB846F0BD012092
:10189000F9E70120F7E70220F5E70320F3E703204B
:1018A000F1E7000030B583B0040080230022C2506D
:1018B000FEF7F0FE05002268126813070DD42368B6
:1018C0001B685B0716D42023A367E3670023236606
:1018D0007422A354002003B030BD80210C4B009330
:1018E0000300002289032000FFF7ECFE0028E6D069
:1018F0000320F0E78021064B00932B000022C90350
:101900002000FFF7DFFE0028DDD00320E3E7C0461C
:10191000FFFFFF0110B5041E2ED0836F002B21D0D6
:101920002423A3672268136801218B4313602000DE
:10193000FFF704FD012814D0636A002B18D1226838
:1019400053680E490B405360226893682A218B43E9
:1019500093602268136829390B4313602000FFF756
:10196000A1FF10BD74330022C254FFF7B9FCD7E7C2
:101970002000FFF737FEE2E70120F2E7FFB7FFFFA5
:101980000D4885460D480E490E4A002302E0D45802
:10199000C4500433C4188C42F9D30B4A0B4C0023B7
:1019A00001E013600432A242FBD3FFF779FC00F0A0
:1019B00011F8FEF7C5FDFEE7002000200000002022
:1019C0000C000020D01A00080C000020B0000020FD
:1019D000FEE7000070B500260C4D0D4C641BA410F2
:1019E000A64209D1002600F021F80A4D0A4C641BDA
:1019F000A410A64205D170BDB300EB58984701363C
:101A0000EEE7B300EB5898470136F2E7C81A000832
:101A1000C81A0008C81A0008CC1A00080300821867
:101A2000934200D1704719700133F9E7F8B5C04609
:101A3000F8BC08BC9E467047F8B5C046F8BC08BC68
:041A40009E46704707
:101A440048656C6C6F20776F726C64210D0A00001E
:101A5400000000000000000001020304060708095A
:101A64000000000001020304030406080C101820FF
:101A74003000000034150008641500086A150008D9
:101A84009E150008761500089E1500089E1500088E
:101A94009E1500087C150008DC14000818150008C1
:101AA4001E150008921500082A1500089215000852
:0C1AB4009215000892150008E4140008C8
:081AC000FCE7FF7F01000000BC
:041AC800E900000829
:041ACC00C10000084D
:0C1AD000010000000400000000002000E5
:040000050800198155
:00000001FF
